:020000040800F2
:10000000401901206D0300087B540008DB470008FD
:1000100079540008BD110008A57700080000000011
:10002000000000000000000000000000A90200081D
:10003000111B00080000000005030008716400089F
:100040008703000887030008870300088703000868
:100050008703000887030008870300088703000858
:100060008703000887030008870300088703000848
:10007000551A000887030008611A00088703000862
:100080008703000887030008870300088703000828
:100090008703000887030008870300088703000818
:1000A0005165000895650008796500086D650008D0
:1000B000A1650008AD650008B96500088703000860
:1000C00087030008870300088703000887030008E8
:1000D000870300080D760008517600085D76000859
:1000E0008703000887030008870300083D660008AF
:1000F0007166000855660008496600088703000815
:100100008703000887030008C56500088703000807
:10011000496C0008296D0008D1650008F5650008E4
:100120008703000887030008870300088703000887
:100130008703000887030008870300088703000877
:100140008703000887030008870300088703000867
:100150008703000887030008870300085D7700080D
:100160008703000887030008870300088703000847
:100170008703000887030008870300088703000837
:100180008703000887030008356D0008F16D00083B
:100190008703000887030008870300088703000817
:1001A0008703000887030008870300088703000807
:1001B00087030008870300088703000887030008F7
:1001C000870300088703000800F002F800F05CF8DD
:1001D0000AA090E8000C82448344AAF10107DA45A2
:1001E00001D100F051F8AFF2090EBAE80F0013F098
:1001F000010F18BFFB1A43F001031847BCAC000005
:10020000DCAC00000A444FF0000C10F8013B13F086
:10021000070408BF10F8014B1D1108BF10F8015B5F
:10022000641E05D010F8016B641E01F8016BF9D152
:1002300013F0080F1EBF10F8014BAD1C0C1B09D1A9
:100240006D1E58BF01F801CBFAD505E014F8016B1B
:1002500001F8016B6D1EF9D59142D6D370470000AD
:100260000023002400250026103A28BF78C1FBD8BF
:10027000520728BF30C148BF0B6070471FB50AF056
:10028000D8FC1FBD10B510BD00F04EFA1146FFF7A7
:10029000F5FF08F0C9FA00F06CFA03B4FFF7F2FFBB
:1002A00003BC07F091FA00002D4B19680868B0E80C
:1002B000F04F80F30988BFF36F8F4FF0000080F399
:1002C000118870470000000008480068006880F34B
:1002D00008884FF0000080F3148862B661B6BFF35F
:1002E0004F8FBFF36F8F00DF00BF00BF08ED00E04E
:1002F000DFF80C00016841F470010160704700BF35
:1003000088ED00E0EFF30980BFF36F8F144B1A689C
:100310001EF0100F08BF20ED108A20E9F04F10608A
:1003200009B44FF0500072B680F31188BFF34F8FBD
:10033000BFF36F8F62B609F045FF4FF0000080F306
:10034000118809BC19680868B0E8F04F1EF0100F5A
:1003500008BFB0EC108A80F30988BFF36F8F704735
:1003600010000020EFF30580704700000948804727
:1003700009480047FEE7FEE7FEE7FEE7FEE7FEE787
:10038000FEE7FEE7FEE7FEE704480549054A064B9F
:100390007047000041650008C901000840130120B2
:1003A00040190120401501204015012053EA020C9C
:1003B00000F069802DE9F04B4FF00006002B1FBFC5
:1003C000B3FA83F503FA05F424FA05F65E4012BF8A
:1003D0001643B2FA82F502FA05F4C5F120051EBFF4
:1003E00022FA05FC44EA0C04203556EA044C4FEA94
:1003F000144418BF641C4FF000084FF000099042ED
:1004000071EB030C39D3002919BFB1FA81F701FA56
:1004100007F6B0FA80F700FA07F6C7F120071EBF0B
:1004200020FA07FC46EA0C062037B6FBF4FCA7EBE3
:100430000507103F07F01F0BCBF120060CFA0BFB52
:100440002CFA06F644BFB3460026202FA4BF5E4612
:100450004FF0000B5BEA060C08BF4FF0010B19EBE5
:100460000B09ABFB027C48EB0608C01B06FB02CC69
:100470000BFB03CC71EB0C01C1E70B460246414676
:100480004846BDE8F08B13B54FF000004FF0000177
:10049000AFF30080BDE81C407047032A40F2308073
:1004A00010F0030C00F0158011F8013BBCF1020FB5
:1004B000624498BF11F801CB00F8013B38BF11F836
:1004C000013BA2F1040298BF00F801CB38BF00F84D
:1004D000013B11F0030300F06780083AC0F0088088
:1004E00051F8043B083A51F804CBA0E80810F5E7AE
:1004F000121D5CBF51F8043B40F8043BAFF3008091
:10050000D20724BF11F8013B11F801CB48BF11F805
:10051000012B24BF00F8013B00F801CB48BF00F8D5
:10052000012B7047431A28BF9A427FF6B6AF032AC1
:100530001044114440F2268010F0030F1EBF11F842
:10054000013D521E00F8013D10F0030F7FF4F6AF9D
:1005500011F0030300F0B980083AC0F00B8051F8A5
:10056000043D083A51F804CD40F8043D40F804CD6C
:10057000FFF7F3BF121D5CBF51F8043D40F8043D86
:10058000AFF30080D20724BF11F8013D11F801CD6F
:1005900048BF11F8012C24BF00F8013D00F801CD3F
:1005A00048BF00F8012C704710B5203AC0F00B800E
:1005B000B1E81850203AA0E81850B1E81850A0E867
:1005C0001850BFF4F5AF5FEA027C24BFB1E81850C1
:1005D000A0E8185044BF18C918C0BDE810405FEA31
:1005E000827C24BF51F8043B40F8043B08BF7047AD
:1005F000D20728BF31F8023B48BF11F8012B28BFB2
:1006000020F8023B48BF00F8012B70474FF0000272
:100610000429C0F0128010F0030C00F01B80CCF114
:10062000040CBCF1020F18BF00F8012BA8BF20F882
:10063000022BA1EB0C0100F00DB85FEAC17C24BFD6
:1006400000F8012B00F8012B48BF00F8012B704780
:100650004FF0000200B5134694469646203922BF5B
:10066000A0E80C50A0E80C50B1F12001BFF4F7AFA6
:10067000090728BFA0E80C5048BF0CC05DF804EB88
:10068000890028BF40F8042B08BF704748BF20F8F6
:10069000022B11F0804F18BF00F8012B70477047F4
:1006A00070477047431A28BF9A427FF67DAF1044C7
:1006B00010F0030F11441EBF11F8013D521E00F847
:1006C000013D10F0030F7FF4F6AF103AC0F00A803E
:1006D00010B531E91850103A20E91850BFF4F9AFBD
:1006E000BDE81040530724BF31E9081020E9081085
:1006F00044BF51F8043D40F8043D12F0030F08BF19
:100700007047D20728BF31F8023D48BF11F8012CCD
:1007100028BF20F8023D48BF00F8012C70470000B8
:1007200000487047DC1201207546FFF7F9FFAE461E
:1007300005006946534620F00700854618B020B5ED
:10074000FFF722FEBDE820404FF000064FF0000703
:100750004FF000084FF0000B21F00701AC46ACE869
:10076000C009ACE8C009ACE8C009ACE8C0098D46D6
:10077000704710B50446AFF300802046BDE8104036
:10078000FFF78BBD4A496FF0706210B5D1F80433A2
:1007900023F44033C1F80433D1F8043344682343CD
:1007A000C1F8043301684B6823F480734B6001681F
:1007B00003694C6844EA03234B6001684B6823F0EB
:1007C00040734B60016884684B6823434B60016849
:1007D0008B6823F400638B600168C4688B682343D3
:1007E0008B60816AD14201688A6822F070628A60F7
:1007F00001680DD0836A8A681A438A6001688A6832
:1008000022F040528A600168C36A8A681A4302E093
:100810008A6822F040528A6001688A6822F00202E7
:100820008A60016882698B6843EA42028A6090F8B4
:1008300020100029016811D01E4A4B6843F4006360
:100840004B6001684B6823F460434B600168446A65
:100850004B6802EB443213434B6003E04A6822F4D6
:1008600000624A600168144BCA6A22F47002CA62CC
:100870000168848BCA6A03EB04531A43CA62016895
:100880008A6822F400728A60016890F830208B68D0
:1008900043EA42228A6001688A6822F480628A60A0
:1008A000016840698A6842EA8020886010BD0000C3
:1008B0000020014000E0FFFF0000F0FF2DE9F04FB5
:1008C0002DED048B87B0DFED5C8A06F0FFFF5B4CFB
:1008D0009FED5B9A94ED090A84ED039A07F04EFCB4
:1008E000584E042086ED010A08F05EFC07F046FC35
:1008F00055491C22B0EE408A6846FFF755FE9FED31
:10090000530A5148524D534F80ED000AC0ED018A01
:1009100002E0022009F04AFBA868B842F9DB4E4F1A
:1009200084ED039A05E000BF06F0D0FF022009F035
:100930003DFBA868B842F7DA9FED480ADFF820814E
:100940004FF4007A84ED030ADFF818914FF4806BBE
:10095000F0EE009A94ED099A43E000BF06F0B6FF6E
:100960000121414888F80010514601F095FD60B121
:1009700000273D48594601F08FFD012800D0002096
:10098000074204D038EE290A12E00127F1E7364881
:10099000514601F081FD01280DD00027324859460B
:1009A00001F07AFD48B10020074208D038EE690A0C
:1009B00086ED010A05E00127F0E70120F4E786ED66
:1009C000018A052009F0F2FA94ED090A274930EE70
:1009D000490A10EE100A884203DD9FED250A84EDD6
:1009E000030AA9684945B9D9002788F80070DFF8DB
:1009F000849086ED018A01E009F0D8FAA9684FF0E9
:100A000002004945F8DD08F0CFFB06F051FF1A4817
:100A10001C22C4ED098AC4ED088A0776017841F0EA
:100A20000401017008486946FFF7BEFD07B0BDEC40
:100A3000048BBDE8F08F0000000000006011002072
:100A400000004844941100205C1001206666E63FD7
:100A50009C0D0120CDCC8C419A99094100007A442B
:100A600081000020CDCCCCC0000C024000008C42A4
:100A70000000FA4366662640841201202DE9F04109
:100A80002DED048BF0EE408A9FED970A9848974D24
:100A900080ED000A05E000BF07F016FE022009F015
:100AA00085FA287A0428F7D905E000BF07F00CFE84
:100AB000022009F07BFA287A0428F7D200F080FBA4
:100AC000C82009F073FA07F0FFFD9FED8A9A9FEDA9
:100AD0008A8A8A4F28684FF08048894E894C0007DF
:100AE00047D0002008F060FBD4ED099A84ED019A0C
:100AF00084ED009A02E0022009F058FA94ED090A08
:100B000039EEC00A10EE100AB842F4DBBAEE0E0A53
:100B100006F072F8474602E0022009F047FA07F0B3
:100B20002DFBD6ED000A30EEC00AB0EEC00A10EE82
:100B3000100AB842F0DC042008F036FB07F01EFB78
:100B400086ED010A84ED038A05E000BF07F0BCFDD5
:100B5000022009F02BFA287A0428F7D905E000BF13
:100B600007F0B2FD022009F021FA287A0428F7D212
:100B70004AE0286810F4704F46D0002008F014FBBB
:100B8000D4ED099A84ED019A84ED009A02E00220E6
:100B900009F00CFA94ED090A39EEC00A10EE100AB9
:100BA000B842F4DBB2EE0E0A06F026F8474602E041
:100BB000022009F0FBF907F0E1FAD6ED000A30EE69
:100BC000C00AB0EEC00A10EE100AB842F0DC0420F1
:100BD00008F0EAFA07F0D2FA86ED010A84ED038AFA
:100BE00005E000BF07F070FD022009F0DFF9287A68
:100BF0000428F7D905E000BF07F066FD022009F0E0
:100C0000D5F9287A0428F7D2022008F0CDFA9FED12
:100C10003E9A3E4F3E4D84ED029A02E0022009F0DA
:100C2000C5F9A868B842F9D9DFF8E88094ED098AD7
:100C300002E0022009F0BAF994ED090A30EE480A00
:100C400010EE100A4045F4DB9FED330A84ED020AF2
:100C500007F094FA86ED010A304E02E0022009F016
:100C6000A5F994ED090A30EE480A10EE100AB042D8
:100C7000F4DB042008F098FA294E84ED039A02E090
:100C8000022009F093F9A868B042F9DDDFF89480FA
:100C900094ED098A02E0022009F088F994ED090A2E
:100CA00030EE480A10EE100A4045F4DB06F00EFE66
:100CB000022008F079FAC4ED028A94ED090A02E0F4
:100CC000022009F073F9A868B842F9D902E00220BD
:100CD00009F06CF9A868B042F9DDBDEC048BBDE801
:100CE000F04106F0E5BD000000002042B8120120EE
:100CF00024100120000048C30000C8430000C04089
:100D000094110020601100200000E143CDCCCCC044
:100D10009C0D0120000020420000164400008C427F
:100D200066662640000040412DE9F043B34C1C228A
:100D3000B3492DED048B8FB0B0EE408A94ED059A47
:100D40006846FFF731FCAF491C2207A8FFF72CFCCF
:100D5000AB48B3EE090AF2EE0E0A80ED000AC0EDD0
:100D6000020AA848B2EE041A80ED001A042008F026
:100D70001BFA07F003FAA44FA44EA54D87ED010A14
:100D800084ED038A02E0022009F010F9A868B0425D
:100D9000F9DBF3EE048A84ED028A0220C4ED0A8AAC
:100DA00008F002FAD4ED099ADFF86882C4ED0A8AE5
:100DB00002E0022009F0FAF894ED090A30EE690A1F
:100DC00010EE100A4045F4DB84ED038A07F0D6F9F3
:100DD0000420B84687ED010A08F0E6F906F076FD32
:100DE0008D4F02E0022009F0E1F8A868B842F9DA74
:100DF00002E0022009F0DAF8A868B042F9DB06F058
:100E000057FD0021AA2004F0A7FD84ED028A0220EC
:100E1000C4ED0A8A08F0C8F9804ED4ED098A02E0D0
:100E2000022009F0C3F894ED090A30EE680A10EECA
:100E3000100AB042F4DB84ED038A07F09FF9042026
:100E4000464688ED010A08F0AFF906F03FFD02E0E2
:100E5000022009F0ABF8A868B842F9DA06F028FDDC
:100E6000DFF8BC814FF4807702E0052009F09EF89E
:100E70003946404601F010FB0028F6D1694F94ED49
:100E8000098A02E0052009F091F894ED090A30EE94
:100E9000480A10EE100AB842F4DB00F091F9624FF4
:100EA00095ED000AD7ED030A08F05EF8002094EDF6
:100EB000098A08F079F99FED5D0ADFF87481002551
:100EC00084ED010A84ED000A4FF4E1790FE05DB989
:100ED0000221962004F040FD642009F067F8022109
:100EE000484604F039FD0125022009F05FF894ED31
:100EF000090A38EE400A10EE100A4045E7DB00F020
:100F00005FF94FF4C8780421404604F025FD6420C1
:100F100009F04CF80421822004F01EFD322009F073
:100F200045F89FED440A082084ED050A06F098FC78
:100F30009FED410A05F060FE4FF0804502E002207F
:100F400009F034F807F01AF9D6ED000A30EEC00ABD
:100F5000B0EEC00A10EE100AA842F0DC07F0D8FD8F
:100F6000387906F0C1FCF0B107F0D2FD042140460B
:100F700004F0F2FC0221962004F0EEFC0A2006F0B8
:100F80006FFC05F0E9FD0421822004F0E5FC02215C
:100F9000484604F0E1FC07F0BBFD00F011F94FF406
:100FA000967009F003F800214FF4A07004F0D4FC0F
:100FB000042008F0F9F89FED210A84ED030A07F0F8
:100FC000DDF886ED010A9FED1E0AFFF757FD0C487C
:100FD0001C226946FFF7E8FA0A481C2207A9FFF716
:100FE000E3FA84ED059A00203876387840F0040062
:100FF00038700FB0BDEC048BBDE8F08360110020A9
:10100000241001205C10012094110020CDCC8C41D3
:101010009C0D012000008C429A9909410000A042D9
:10102000000C02400000A04184120120000048C3CF
:10103000000010410000FA43000033430000C843A1
:1010400000001644F0B52DED028B87B007F096F83E
:10105000284880ED010A06F039FC27491C22684621
:10106000FFF7A2FA24489FED250A264DDFED240A5A
:1010700080ED000A0220C5ED020A08F095F8224C26
:10108000224E02E0022008F091FFA068B042F9DB96
:10109000204E9FED1F0A85ED020A02E0022008F0B3
:1010A00085FFA068B042F9D91B4E1C4F95ED098A07
:1010B0000AE0022008F07AFF95ED090A30EE480AAE
:1010C00010EE100AB04202DCA068B842F1D806F077
:1010D000EFFB09481C226946FFF766FA1048002119
:1010E0000176017841F00401017007B0BDEC028B7C
:1010F000F0BD0000941100202410012000003442B3
:1011000000007A43601100209C0D01209A997941DA
:101110000000C843CDCC8CC00000A041CDCCCCBEDB
:101120008412012070B52DED028BF0EE408A88B05C
:1011300006F0CCFB1B491C226846FFF735FA19481C
:101140009FED1A0A184CDFED1A0A80ED000A022002
:10115000C4ED020A08F028F8164E062594ED098A17
:1011600005E0357107F0B0FA022008F01FFF94ED9A
:10117000090A30EE480AB4EEE80AF1EE10FAF0D3AC
:1011800008481C226946FFF70FFA0B4C0020207616
:1011900006F08EFB207840F00400207008B0BDEC13
:1011A000028B70BD24100120601100200000484215
:1011B0000000C8435811002084120120FEE70000FF
:1011C000002010B507F0F0FF04489FED030A80ED02
:1011D000010A80ED000A10BD00000000601100202F
:1011E0002DE9F04FDFF8FCB3FF4C2DED0A8B93B0E7
:1011F0009FEDFE8A9BF8001004F11C004FF00108DF
:10120000009081B90BF1070109788BF800802079F3
:1012100006F0D6FF00EB4001F548182200EBC101B3
:101220000098FFF7C1F9EF4FDFF8C8A37F1EDFF882
:10123000C893F24EF24D3878F3EE048A012802D0BA
:10124000002867D08DE0022007F0AEFF208A09F069
:10125000FBFA9FEDEC1B53EC112B09F045FB95EDD0
:10126000090A41EC190BB0EEC00A10EE100A09F0A1
:101270006FFC53EC192B09F035FC46D80020387070
:10128000208980050CD5DAF80000C0F3C1100328CE
:1012900006D1DE48D4ED030A90ED000A07F064FEA3
:1012A00006F06CFFD4ED090A07F0A0FEB0EEC00A0C
:1012B00010EE101A49450BDDD4ED090A94ED030A2E
:1012C00007F094FEB0EEC00A10EE100A484506DCA6
:1012D000C5ED0A8A94ED050A85ED020A41E0C5EDE7
:1012E0000A8A2089000502D59FEDC90AF4E794ED2A
:1012F000050AF6EE000AC74860EE200A10EE901AC2
:101300008142E9DD9FEDC40AE6E7B3EE090A85ED07
:101310000A0ADFE7207E07F08BFB2078400723D402
:1013200006F036FB70B1207801060BD4202809D0D6
:10133000092006F095FAB94880ED008A207840F03F
:1013400004002070207841070ED4B5490A78012A9C
:1013500072D140F00403B148002280ED008A23706E
:101360000A702078400767D520789E4920F0040055
:1013700020709BF80000891D405CFF287DD006F09E
:10138000FDFED4ED090A07F031FEB0EEC00A10EE02
:10139000100A48450FDBD4ED090A94ED030A07F063
:1013A00025FEB0EEC00A10EE100A9349884202DB17
:1013B000206AC00202D587F8008092E2A0684FF050
:1013C0008049410539D52079D5ED098A1A2811D0EF
:1013D000DFF850A295ED090A30EE680A10EE100A07
:1013E000504511DA022008F0E1FDF3E7022008F091
:1013F000DDFD01E0DFF830A295ED090A30EE680A64
:1014000010EE100A5045F1DB94ED090A032086ED39
:10141000000A07F0C9FE02E0022008F0C7FD06F04E
:10142000ADFED4ED090A30EEC00AB0EEC00A10EEEF
:10143000100A4845F0DC54E281E20104DFED7BCA8A
:101440009FED7BCA9FED7BAB6AD5042007F0ACFE15
:101450007A491C2209A8FFF7A7F87848C0ED00CA0E
:1014600095ED090A95ED020A95ED06BA85ED030A98
:1014700095ED030A20EE0C0A00E061E285ED060A14
:10148000C5ED0B8A94ED090A86ED010A30E09AF861
:1014900009105046012928D1006810F4FC6F24D0AF
:1014A000D4ED030A96ED010A07F0A0FDB0EEC00AE4
:1014B00010EE100A09F04CFB53EC1A2B09F014FA49
:1014C00041EC190B06F05AFEF0EE400A96ED010AC7
:1014D00007F08CFDB0EEC00A10EE100A09F038FBE0
:1014E00053EC192B09F0C4F90ED3022008F05EFD6D
:1014F00006F044FED4ED090A30EEC00AB0EEC00A90
:1015000010EE100A4845C2DC1C2101A8FFF7A0F824
:101510004B481C2201A9FFF747F81C2209A99DE1AD
:10152000C2039FED489ADFED489A9FED48BB57D51F
:1015300040F48051474890ED00AAD0ED058A80ED37
:10154000009A95ED020A20EE290A80ED050AA160B5
:1015500094ED090A86ED010A32E0022008F026FD2A
:101560009AF80910504601292AD1006810F47F6FBB
:1015700026D0D4ED030A96ED010A07F037FDB0EE50
:10158000C00A10EE100A09F0E3FA53EC1B2B09F025
:10159000ABF941EC190B06F0F1FD96ED011AF0EEF6
:1015A000400AB0EE410A07F021FDB0EEC00A10EE8D
:1015B000100A09F0CDFA53EC192B09F059F90DD3A3
:1015C00006F0DCFDF0EE400A96ED010A07F00EFD94
:1015D000B0EEC00A10EE100A4845BEDC1D483BE0E4
:1015E0003EE00000C700002084120120000000003F
:1015F0001C050020B8120120000020419411002099
:1016000060110020666666666666E63F9C0D0120F6
:101610000080224400007A440000E1445811002078
:10162000BC000020000060410000C0403333733F25
:101630006666E63E000000A09999C93F5C10012053
:10164000CC100120000020429A99193F00000000B0
:101650000000E03F24100120A16821F4805171E0D6
:10166000800376D5EF482179D5ED09AA90ED00AA3F
:10167000D0ED058A0B2903D00BE0022008F096FC80
:1016800095ED090AE84930EE6A0A10EE100A884220
:10169000F3DBE44880ED009A95ED020A20EE290A7A
:1016A00080ED050AA06840F40050A06094ED090A9E
:1016B00086ED010A34E0022008F078FC9AF809105F
:1016C000504601292CD1006810F47F6F28D006F015
:1016D00055FDF0EE400A96ED010A07F087FCB0EEEA
:1016E000C00A10EE100A09F033FA53EC1B2B09F074
:1016F000FBF841EC190B06F041FD96ED011AF0EEF6
:10170000400AB0EE410A07F071FCB0EEC00A10EEDC
:10171000100A09F01DFA53EC192B09F0A9F80DD3A2
:1017200006F02CFDF0EE400A96ED010A07F05EFC93
:10173000B0EEC00A10EE100A4845BCDCA168B948FA
:1017400021F40051A16080ED00AAC0ED058AC8E037
:10175000FFE706F013FDD4ED090A07F047FCB0EEF1
:10176000C00A10EE101AB14881427EDA042007F058
:101770001BFDAF491C2208A8FEF716FFAC48C0EDC0
:1017800000CA95ED020A95ED06BA95ED099A85ED28
:10179000030A95ED030A20EE0C0A85ED060AC5ED55
:1017A0000B8A94ED090A86ED010A2079062803D0F8
:1017B0003DE0022008F0FAFB95ED090A9D4930EE64
:1017C000490A10EE100A8842F3DB30E09AF809105B
:1017D0005046012928D1006810F4FC6F24D0D4EDC4
:1017E000030A96ED010A07F001FCB0EEC00A10EE04
:1017F000100A09F0ADF953EC1A2B09F075F841EC19
:10180000190B06F0BBFCF0EE400A96ED010A07F05A
:10181000EDFBB0EEC00A10EE100A09F099F953EC96
:10182000192B09F025F80ED3022008F0BFFB06F0B3
:10183000A5FCD4ED090A30EEC00AB0EEC00A10EEE5
:10184000100A4845C2DC1C2101A8FEF701FF7A48B6
:101850001C2201A9FEF7A8FE1C2208A97448FEF765
:10186000A3FE85ED06BA3CE0FFE72079D5ED098AB5
:10187000132802D1207F192812D0DFF8C0A100BFA1
:1018800095ED090A30EE680A10EE100A504511DA9B
:10189000022008F08BFBF3E7022008F087FB01E051
:1018A000DFF890A195ED090A30EE680A10EE100AF3
:1018B0005045F1DB94ED090A032086ED000A07F09C
:1018C00073FC02E0022008F071FB06F057FCD4ED37
:1018D000090A30EEC00AB0EEC00A10EE100A484500
:1018E000F0DC87F8008005F0E3FF022007F05CFCE5
:1018F00000991822201DFEF757FE94ED050A504965
:1019000085ED020A9BF80000431C095C8BF800304F
:10191000207906F055FC00EB40014A48182200EB04
:10192000C1010098FEF740FE47480021017180ED9B
:10193000008A06F0A9FB207820F0040020700AE05D
:1019400085ED028AFFF73CFC87F800809BF80110C8
:10195000491C8BF80110207880061FD587F800807D
:101960009BF80010364B0846401C595C8BF8000071
:10197000207906F025FC00EB40013248182200EBEC
:10198000C1010098FEF710FE207F132802D00E2020
:1019900084F83000207820F02000207020780006A5
:1019A0003AD587F800809BF80010254B0846401C6C
:1019B000595C8BF80000207906F002FC00EB400136
:1019C0002048182200EBC1010098FEF7EDFD2078B9
:1019D00020F080002070042007F0E6FB06F0CEFB2C
:1019E000DFED1A0A86ED010AC5ED030A184E95EDE2
:1019F000098A01E008F0DAFA95ED090A30EE480AA2
:101A000010EE100AB0424FF00200F3DB07F0CCFBFF
:101A100094ED050A85ED020A13B0BDEC0A8BBDE812
:101A2000F08F0000241001200000A0400000C842F8
:101A30005C10012000002041CC10012000009041EA
:101A4000CE0000201C050020581100200000164484
:101A50000000C040014800F07BBA0000841B002059
:101A6000014800F075BA0000241B0020016818230B
:101A7000CAB2103AB2FBF3F2054B6FF30901032A25
:101A80009B5CC36500D9091D81650846704700004D
:101A900046AC000810B583694FF0C074826A0146F5
:101AA000002053B1B3F5005F15D072B1012A0CD0FC
:101AB000022A0AD0032A09D104E01AB1012A06D069
:101AC000022A03D1C96AC90100D5012010BDC96A23
:101AD000A142FAD010BD002AF7D0012AF2D0022A82
:101AE000F3D0032AF3D010BD30B50468256825F47F
:101AF00080252560046863608368402B036803D0F9
:101B000099600068C26030BD9A600068C16030BDF5
:101B1000704700001848002110B501F075FE164806
:101B2000042101F071FE144801F066FC1348002105
:101B300001F06AFE1148042101F066FE0F4801F031
:101B40005BFC0F48002101F05FFE0D48042101F00D
:101B50005BFE0B4801F050FC0A48002101F054FEE6
:101B60000848042101F050FE064801F045FCBDE89C
:101B70001040054801F040BC38140020D01400206B
:101B800084140020681500209816002072B6FEE725
:101B900010B51B4919482DED028BB0EE408A91ED2E
:101BA000010A184980ED020A91ED000A164980EDFC
:101BB000060A07F06BFB10EE100A1449DFED140A59
:101BC000884202DBB0EE600A06E010EE100A11490E
:101BD000884201D39FED100AB0EEC81A0F48C1EE3B
:101BE000201A21EE800A78EE400A38EE000AC0ED95
:101BF000000A80ED010ABDEC028B10BD941001209B
:101C0000B812012058110020241001200000484281
:101C100000004842000048C2000048C26011002095
:101C2000F8B50025009590F83C20012A1DD001222E
:101C300080F83C20664C0723D6070A68092A22D977
:101C4000B24220D007680A3A02EB420CFA6803FA63
:101C50000CF39A43FA600A68A24208D102680B7A30
:101C6000D76847EA0363D36022E00220F8BD076823
:101C70000A3A8B6802EB4202D7F80CC0934043EA61
:101C80000C03FB6014E0076802EB4202D7F810C0B7
:101C900093402CEA030CC7F810C003680F788A68D9
:101CA000D3F810C007EB4707BA4042EA0C021A61AA
:101CB0004A681F23072A16D20768521E02EB820CBD
:101CC0007A6B03FA0CF39A437A6303680F790A88F4
:101CD0007F1ED3F834C092B207EB8707BA4042EABE
:101CE0000C025A632DE007680D2A15D2D21F02EBB1
:101CF000820C3A6B03FA0CF39A433A6302680F7949
:101D00000B88FF1FD2F830C09BB207EB8707BB40A0
:101D100043EA0C03136314E00D3A02EB820CFA6AF7
:101D200003FA0CF39A43FA6203680F790A880D3FAD
:101D3000D3F82CC092B207EB8707BA4042EA0C02F4
:101D4000DA62244A0368934208D10B68B34205D192
:101D5000D2F8043323F44003C2F8043303689342F7
:101D60000ED10B68122B0BD1D2F8043323F40003ED
:101D7000C2F80433D2F8043343F48003C2F80433C6
:101D80000368934220D10B68A34201D0112B1BD1D1
:101D9000D2F8043323F48003C2F80433D2F80433B6
:101DA00043F40003C2F804330968A1420CD10A4984
:101DB0000A4A0968B1FBF2F101EB8101490000E038
:101DC000491E00910029FBD180F83C500020F8BD4D
:101DD00012000010002001400C00002040420F00C3
:101DE00070B504004FF0000503D0206C002610B140
:101DF00007E0012070BD204600F01CF8666484F8FE
:101E00003C60206CC00610D4206C20F4885040F058
:101E1000020020642046FEF7B5FC6664206C20F0CA
:101E2000020040F00100206400E0012584F83C60DD
:101E3000284670BD10B586B0044614216846FEF7EA
:101E400007FC1149206888421BD11048016841F401
:101E500080710160006800F4807005900B481438B0
:101E6000016841F00401016000680321002200F0D4
:101E70000400059020208DE807000548694600F021
:101E8000E7F906B010BD00000020014044380240D0
:101E9000000802402DE9F041876D044600F00EFB7A
:101EA000064694F835000025022806D0802060659B
:101EB000012084F83450BDE8F0812068016821F0E9
:101EC000160101602068416921F080014161206CA8
:101ED00008B9A06C20B12068016821F008010160F8
:101EE0002068016821F0010101600CE000F0E6FAD1
:101EF000801B052807D920216165032084F835005F
:101F000084F83450D7E720680068C007EED194F811
:101F10005C203F2001219040B86084F835100020FB
:101F200084F83450C7E790F83510022903D0802197
:101F3000416501207047052180F83510006801686F
:101F400021F00101016000207047406D70470000E2
:101F50002DE9F84304464FF00009644B0820CDF802
:101F600000904FF41652A56D94F85C101B682E6813
:101F7000B3FBF2F700FA01F131420FD021680A6891
:101F800052070BD50A6822F004020A6094F85C102C
:101F90008840A860606D40F00100606594F85C10B6
:101FA0004FF0010808FA01F0304208D02168496971
:101FB000090604D5A860606D40F00200606594F8E1
:101FC0005C1004208840304208D0216809688907E5
:101FD00004D5A860606D40F00400606594F85C1062
:101FE00010208840304218D021680968090714D5AC
:101FF000A86020680168490304D50068000308D57B
:10200000A16C07E00168C90503D4016821F008014B
:102010000160216C09B12046884794F85C102020AB
:102020008840304231D021680968C9062DD5A860A2
:1020300094F8350005282068016806D0490347D583
:10204000006800031DD4616C1CE021F016010160E2
:102050002068416921F080014161206C08B9A06CC1
:1020600020B12068016821F00801016094F85C301B
:102070003F229A40AA6084F8358084F83490216D1C
:102080001FE0E16B09B120468847606D00282BD026
:10209000606DC00714D0052084F835002068016801
:1020A00021F0010101600098401C0090B84203D863
:1020B00020680068C007F6D184F8358084F8349031
:1020C000E16C002910D001B02046BDE8F04308477C
:1020D0000168C905D5D4036823F01003036084F8B0
:1020E000358084F83490CCE7BDE8F8830C000020FC
:1020F0002DE9F047044600F0E1F9054664B10221FC
:102100004FF0000984F8351084F834902068016895
:1021100021F0010101600EE00120BDE8F08700BF61
:1021200000F0CCF9401B052805D92021616503206A
:1021300084F83500F1E720680068C007F0D1D4E9E1
:102140000020D4E90251D4E9043C284304F11805E5
:1021500019430843116895E8E00140EA0C001C4B64
:102160002843194040EA060040EA0700B8F1040F8E
:1021700040EA010003D1D4E90B131943084310606E
:1021800020680126656A4069042D20F0070045EAB1
:1021900000050CD1D4E90A01054341B12046FFF7FF
:1021A00079FC20B14020606584F83560B4E7206890
:1021B00045612046FFF75AFC94F85C303F229A4074
:1021C0008260C4F8549084F835600020A5E70000D0
:1021D0003F8010F02DE9F041044690F834000025CE
:1021E0000128A66D0ED094F835C00127002084F890
:1021F0003470BCF1010F07D0022584F83400284662
:10220000BDE8F0810220FBE7022784F835706065A5
:102210002046FFF769FC94F85C103F208840B060CE
:102220002068016841F0160101602068416941F0B1
:1022300080014161206C20B12068016841F00801F3
:1022400001602068016841F001010160D7E70000EA
:102250002DE9F84FDFF80CB2012403254FF00F0AE7
:1022600000220BF1040E00BF0B6804FA02F63340A3
:10227000B34278D10F7907F00307012F01D0022F65
:102280001AD187684FEA4209D1F80CC005FA09F85B
:1022900027EA08070CFA09FC4CEA070CC0F808C04A
:1022A000476891F804C0B743CCF3001C0CFA02FC59
:1022B0004CEA070CC0F804C00E79F643B6070BD001
:1022C000C6684FEA420C8F6805FA0CF826EA080641
:1022D00007FA0CF73743C7600E7906F00306022EA3
:1022E00012D1D6084FEA427800EB860600960F69B5
:1022F000D6F820904FEAD8660AFA06FCB74029EAD9
:102300000C063743009E37620F7906684FEA420C8D
:1023100007F0030705FA0CF807FA0CF726EA080697
:10232000374307604E6816F4403F1CD04E4E376866
:1023300047F480473760366822F00308970706F4B1
:1023400080460096494E3F0F4644B146D6F808688D
:10235000DFF81C810AFA07FC404526EA0C0603D187
:102360004FF0000C41E076E0DFF808C1604502D193
:102370004FF0010C39E0DFF800C1604502D14FF0A9
:10238000020C32E0DFF8F4C0604502D14FF0030CDC
:102390002BE0DFF8ECC0604502D14FF0040C24E0E4
:1023A000DFF8E0C0604502D14FF0050C1DE0DFF81A
:1023B000D8C0604502D14FF0060C16E0DFF8CCC063
:1023C000604502D14FF0070C0FE0DFF8C4C0604554
:1023D00002D14FF0080C08E0DFF8B8C0604502D128
:1023E0004FF0090C01E04FF00A0C0CFA07FC4CEA24
:1023F000060CC9F808C84F68DBF80060FF0226EA3F
:10240000030600D51E437746CBF80060D1F804C020
:10241000DEF800605FEA8C2C26EA030600D51E4336
:10242000DFF840C03E60ACF1040C4F68DCF800609F
:10243000BF0326EA030600D51E430A4FCCF800600E
:10244000083FD1F804C03E685FEACC3C26EA0306A8
:1024500000D51E433E60521C102AFFF405AFBDE8B4
:10246000F88F0000083C0140443802400030014031
:10247000000002400004024000080240000C02403C
:10248000001002400014024000180240001C0240EC
:1024900000200240002402400069084000D00120D2
:1024A0007047426921EA02030A4043EA024181611E
:1024B00070470AB1816170470904FBE701488068F1
:1024C0007047000000000020024881680278114433
:1024D0008160704700000020032010B500F09AF8DA
:1024E0000F2000F005F800F04FF8002010BD0000AC
:1024F00030B505461F4887B0016841F4807101601E
:10250000006806A900F48070009001A800F0E0FBCC
:102510000498B0B100F0FCFB4000174A0021174BB3
:10252000B0FBF2F2164840F2E7340360C0E9034121
:10253000521EC0E90121816100F0A4FE040003D015
:1025400015E000F0E5FBE8E70D4800F055FF04005A
:102550000DD12D2000F030F8102D07D20022294691
:102560002D2000F037F80748056000E0012407B08F
:10257000204630BD4038024040420F00002000405D
:10258000E41B0020040000200A4808B5016841F05F
:1025900080510160006800F0805000900548001DE7
:1025A000016841F480410160006800F480400090BF
:1025B00008BD000040380240002809DB410900F056
:1025C0001F028900012001F1E0219040C1F80001C3
:1025D000704700000E4BF0B41B680D46C3F3022396
:1025E000C3F10706042E00D90426191D072901D2BC
:1025F000002300E0DB1E012404FA06F19C40491E82
:102600002940641E994014402143F0BC05F0CBB82A
:102610000CED00E0064900F0070210B54FF6FF048C
:102620000868044B204040EA02201843086010BDAF
:102630000CED00E00000FA051848F8B5016841F01B
:10264000805101600068164C00F0805000902068B6
:1026500040F480302060FFF731FF4FF47A76054672
:1026600005E000BFFFF72AFF401BB0420FD86068AB
:10267000C003F7D5206840F400302060FFF71EFF4C
:10268000054606E0FFF71AFF401BB04201D90320C0
:10269000F8BD60688003F5D50020F8BD40380240E1
:1026A000007000402DE9F84F04460078DFF82494CC
:1026B0004FF000063746C0070ED0D9F8001021F4BD
:1026C0000001C9F80010D9F80010626B1143C9F875
:1026D0000010606B00B90126FE4D206884350003B0
:1026E0000ED5E16B286820F4401008432860E06BA9
:1026F000B0F5801F01D010B102E0012600E00127F3
:1027000020684FF4800BC0020CD5216C286820F49F
:10271000400008432860206C584501D1012601E0A3
:1027200000B901272068C10100D50126800666D5C1
:10273000E8483830016841F0805101600068DFF8F6
:1027400098A300F080500090DAF8001041F48071F6
:10275000CAF80010FFF7B2FE804605E0FFF7AEFEB4
:10276000A0EB080064287DD8DAF80000C005F5D594
:10277000DFF8608308F16808D8F8000010F44070B2
:102780002AD0218E01F44071814225D0D8F8001062
:10279000D8F8002021F4407142F48032C8F80020BB
:1027A000D8F8002022F48032C8F80020C8F80010C1
:1027B000D8F80000C0070FD0FFF780FE824607E080
:1027C000FFF77CFEA0EB0A0141F288308142CAD8B3
:1027D000D8F800008007F3D5206BC0F3012103294E
:1027E0007ED0D9F8001021F4F811C9F80010228E1B
:1027F000D8F80010C2F30B021143C8F8001020787B
:10280000C00607D5286820F0807028602868A16B72
:10281000084328602188AF488830490405D5626E96
:10282000016821F44031114301602188090405D574
:10283000A26E016821F44021114301602168C9039F
:1028400005D5E26E016821F4401111430160216851
:10285000890305D5226F016821F44001114301600D
:10286000217800E016E1490605D5626C016821F087
:102870000301114301602178090605D5A26C0168A6
:1028800021F00C01114301602188C90505D5E26CD6
:10289000016821F03001114301602188890505D5C7
:1028A000226D016821F0C0011143016021884905B2
:1028B00005D5626D016821F44071114301602188E2
:1028C000090505D5A26D016821F44061114301603D
:1028D0002188C90407D5E26D016821F4405100E068
:1028E0004AE0114301602188890405D5226E016800
:1028F00021F44041114301602168490205D5A26FCE
:10290000016821F080611143016021684FF0006A85
:10291000890209D5E26F016821F00061114301606D
:10292000E16F514500D1012721680A0700D5012731
:10293000490305D5626F016821F0407111430160C0
:102940002168090206D5D4F88020016821F0805161
:1029500011430160DFF88491012E02D020688001CC
:102960007ED5D9F800004E4620F08060C9F80000FE
:10297000FFF7A4FD80460FE0594AD9F80030104017
:1029800023F4F8120243C9F8002030E7FFF796FD60
:10299000A0EB080064287DD830680001F6D42178C7
:1029A0004C487C30C90712D0616B81B9237A6268C8
:1029B0000168D0F800C09201C1F3014142EA01422E
:1029C000CCF3036142EA016141EA037101602168CD
:1029D0000A0303D5E26BB2F5801F04D0C9021AD5F1
:1029E000216C594517D16368016894F80CC00268DE
:1029F0009B01C1F3014143EA0141C2F3027241EA82
:102A00000C6141EA027101602968626A21F01F01CC
:102A1000521E114329602168C90110D5238A6268BA
:102A20000168D0F800C09201C1F3036142EA034299
:102A300042EA0162CCF3027142EA0171016021684D
:102A400089010CD56168228A237B94F808C089012A
:102A500041EA024141EA036141EA0C71016000E090
:102A600011E03168B04641F080613160FFF726FD2A
:102A7000064604E0FFF722FD801B64280AD8D8F838
:102A800000000001F6D56FB3D9F800004E4620F0E3
:102A9000805000E07BE0C9F80000FFF70FFD07461B
:102AA00005E000BFFFF70AFDC01B64286FD830683F
:102AB000C0438000F6D50748216880300A0301D55D
:102AC000E26B1AB1C90225D5216C19BB6369016893
:102AD000277E08E0083802400070004000380240BD
:102AE000FFFCFF0F5AE00268C1F301419B0143EA7A
:102AF0000143C2F3027143EA076242EA01710160D5
:102B000029686FF0FF03A26A21F4F85103EB022257
:102B1000114329602168890212D5E16F51450FD117
:102B2000238C6269016807689201C1F3036142EA7C
:102B3000034242EA0162C7F3027142EA0171016095
:102B40002178090716D561690268D0F800C08B01A9
:102B5000277FC2F30362CCF3014143EA014141EA1A
:102B6000026141EA077101602868E16A20F440309F
:102B700008432860306840F080503060FFF79EFCCA
:102B8000044607E0FFF79AFC001B642802D90320E3
:102B9000BDE8F88F3068C0438000F3D40020F7E729
:102BA0002DE9F04705000F4663D0444E306800F031
:102BB0000F00B84209D2306820F00F00384330606F
:102BC000306800F00F00B84253D128683C4C8107B0
:102BD00012D5400703D5206840F4E05020602878E3
:102BE000000703D5206840F460402060A968206891
:102BF00020F0F000084320602878C0072AD0304930
:102C000068680839012810D00968022810D089079F
:102C100000292EDA216821F0030101432160FFF72A
:102C20004DFC804641F288390DE009688903EFE7E1
:102C30008901EDE7FFF742FCA0EB0801494502D905
:102C40000320BDE8F0876868216801F00C01B1EB52
:102C5000800FEFD1306800F00F00B8420BD9306818
:102C600020F00F0038433060306800F00F00B842A9
:102C700001D00120E5E72878400705D5E9682068FC
:102C800020F4E050084320602878000706D5286922
:102C9000216821F4604141EAC000206000F058F84A
:102CA0002168084AC1F30311515CC8400649086015
:102CB00006480068FFF71CFC0020C2E7003C024009
:102CC000083802404EAC00080C0000200400002030
:102CD0000D4A0F2330B503604FF4E0540B4B1568D9
:102CE00005F003054560156805F0F0058560156879
:102CF00005F4E055C560126804EAD2020261186862
:102D000000F00F00086030BD08380240003C02406F
:102D10000449054809680068044AC1F38221515CEE
:102D2000C8407047083802400C0000205EAC000824
:102D30000449054809680068044AC1F34231515CFE
:102D4000C8407047083802400C0000205EAC000804
:102D5000154910B51548096811F00C0213D0144933
:102D6000042A0FD0082A0ED10F4C241F2268236892
:102D700002F03F025B0207D52068C0F38810A0FB79
:102D8000010106E0084610BD2168C1F38811A1FBCE
:102D900000010023FDF70AFB2168C1F30141491C32
:102DA0004900B0FBF1F010BD083802400024F400E7
:102DB00040787D012DE9F84F04004FF000076ED0F8
:102DC0002078DFF868A3AAF10408C007A8F1040579
:102DD0004CD0DAF800105046C1F38101012908D027
:102DE0000068C0F3810002280AD1D8F80000400230
:102DF00006D52868800339D560680028DFD035E023
:102E00006068B0F5803F0BD010B1B0F5A02F11D0A5
:102E1000286820F480302860286820F4802002E0B0
:102E2000286840F480302860606890B1FFF746FB66
:102E300006460AE0286840F480202860F0E700BFDA
:102E4000FFF73CFB801B642872D828688003F7D505
:102E50000CE0FFF733FB064605E000BFFFF72EFB53
:102E6000801B6428F0D828688003F7D42078800776
:102E700042D5DAF80010504611F00C0F08D0006867
:102E8000C0F3810002280BD1D8F80000400207D41B
:102E90002868800718D5E068012800D114E041E1D6
:102EA000E0680028286817D040F001002860FFF78C
:102EB00005FB064605E000BFFFF700FB801B02286C
:102EC000C2D828688007F7D52069296821F0F80161
:102ED00041EAC00028600FE020F001002860FFF701
:102EE000EDFA064605E000BFFFF7E8FA801B02286E
:102EF0001ED828688007F7D42078000729D58B488A
:102F000061696C3000298146016812D041F00101ED
:102F10000160FFF7D3FA064605E000BFFFF7CEFADF
:102F2000801B022804D8D9F800008007F6D510E0ED
:102F300089E021F001010160FFF7C0FA064604E0D4
:102F4000FFF7BCFA801B02287DD8D9F80000800763
:102F5000F6D4207840076BD5DFF8D09109F1380915
:102F6000D9F80000C0000BD4D9F8001041F080510E
:102F7000C9F80010D9F80000012700F08050009037
:102F80006B480168C90512D40168834641F4807119
:102F90000160FFF793FA064605E000BFFFF78EFADF
:102FA000801B64284FD8DBF80000C005F6D55F4EC3
:102FB000A068683601280AD008B1052811D0306809
:102FC00020F001003060306820F0040002E030683A
:102FD00040F001003060A068A0B1FFF76FFA8346AF
:102FE0000CE0306840F004003060F0E7FFF766FA6C
:102FF000A0EB0B0141F28830814266D8306880072F
:10300000F4D50EE0FFF75AFA834607E0FFF756FAC9
:10301000A0EB0B0141F28830814256D8306880071E
:10302000F4D42FB1D9F8001021F08051C9F8001064
:10303000A069C8B3DAF80010C1F3810102294BD0AE
:103040000228286800E040E020F08070286003D06B
:10305000FFF734FA04463BE0FFF730FA064604E097
:10306000FFF72CFA801B02282FD828688001F7D49C
:10307000D4E90962D4E907012E4B570894F82C20B3
:10308000084303EB074343EA8611084340EA026022
:1030900040F00050C8F80000286840F080702860B8
:1030A000FFF70CFA044606E03EE000BFFFF706FA21
:1030B000001B022809D828688001F7D534E000BF3A
:1030C000FFF7FCF9001B022802D90320BDE8F88FA6
:1030D00028688001F4D427E00128D8F8000021D026
:1030E000E16900F480028A421CD1216A00F03F02AB
:1030F0008A4217D1626A47F6C0710140B1EB821F64
:1031000010D1A16A4FF0FF3200F4403302EB5101BD
:10311000B3EB014F06D194F82C1000F07060B0EBC7
:10312000016F01D00120D1E70020CFE7083802402D
:10313000007000400000FFFF7047704770470000BC
:103140002DE9F04390F83C20012A42D0012280F87A
:103150003C2051F80C4BDFF880804FF0000991E8DB
:10316000680051E9022723F44073B1F80CC03B43D7
:10317000CF6923F480631343026823F4006323437D
:1031800023F4805343EA050323F4005343EA060380
:1031900023F4804343EA07030C3923F470234245A8
:1031A00043EA0C4302D00D4CA2420CD18D8C23F487
:1031B0007006D1E9073446EA055121F080711943C0
:1031C00021F000732343536480F83C900020BDE855
:1031D000F0830220FBE700000000014000040140F2
:1031E000F0B590F83C20012A3BD01F4E012480F816
:1031F0003C40022280F83D2002681C4D5368B242D8
:10320000D2F808C001D0AA4203D14F6823F470035A
:103210003B430F6823F070031F4357600268B242BC
:1032200013D0B2F1804F10D0114B9A420DD0114BF8
:103230009A420AD0104B9A4207D0AA4205D00F4BAF
:103240009A4202D00E4B9A4204D189682CF0800336
:1032500019439160002180F83D4080F83C100846F9
:10326000F0BD0220F0BD000000000140000401405C
:103270000004004000080040000C004000400140F5
:103280000018004010B5040003D094F83D0010B1C0
:1032900007E0012010BD002084F83C00204600F02B
:1032A00023F8022084F83D002068211D03F0E6F990
:1032B000012084F8480084F83E0084F83F0084F838
:1032C000400084F8410084F8420084F8430084F808
:1032D000440084F8450084F8460084F8470084F8E8
:1032E0003D00002010BD000008B53D4A01683D4882
:1032F00091420ED1016841F0040101600068002292
:10330000052100F0040000901E20FFF763F91E2045
:1033100060E0354A91420ED1016841F02001016020
:1033200000680022092100F0200000903720FFF7FC
:1033300051F937204EE02B482C4A001D914226D1EE
:10334000016841F00201016000680022052100F0DF
:10335000020000902B20FFF73DF92B20FFF72CF9FE
:10336000002205212C20FFF735F92C20FFF724F946
:1033700000220F212D20FFF72DF92D20FFF71CF93A
:10338000002205212E20FFF725F92E2022E0184AE1
:1033900091420ED1016841F4803101600068002241
:1033A000052100F4803000901820FFF713F9182051
:1033B00010E0104A914211D1016841F4802101606E
:1033C00000680022052100F4802000901A20FFF7F9
:1033D00001F91A20BDE80840FFF7EEB808BD00006B
:1033E0000008004040380240001400400004014042
:1033F000004001400048014090F83D10012901D0F3
:1034000001207047174A022180F83D100168CB68FF
:1034100043F00103CB600068904214D0B0F1804FBC
:1034200011D0114988420ED0104988420BD0104962
:10343000884208D00F49884205D00F49884202D0FF
:103440000E49884207D181680D4A1140062906D0ED
:10345000B1F5803F03D0016841F001010160002017
:1034600070470000000001400004004000080040D8
:10347000000C0040000401400040014000180040E2
:1034800007000100016841F21113CA6822F001022D
:10349000CA6001680A6A1A4207D10A6A9B101A4276
:1034A00003D10A6822F001020A60012180F83D1070
:1034B0000020704770B5044690F83C0000250128B4
:1034C00017D0334B012684F83C60022084F83D007D
:1034D00022689068184020F47F4090600868502867
:1034E00038D00DDC20284FD005DC90B3102811D146
:1034F0004AE0022070BD302846D040280AD13BE087
:1035000060282FD070280DD0B0F5805F03D0B0F5C3
:10351000005F12D0012584F83D60002084F83C0053
:10352000284670BD4A682068D1E9021303F019F9F2
:103530002068816841F0770109E04A682068D1E994
:10354000021303F00EF92068816841F48041816024
:10355000E1E719E0CA684968206803F049FA206881
:10356000502106E0CA684968206803F052FA2068D2
:10357000602103F0FFF8CEE7CA684968206803F0CD
:1035800037FA20684021F4E7226801461046F0E748
:1035900088FFFEFF2DE9F04104000D4603D094F8AA
:1035A0003D0018B108E00120BDE8F081002084F85A
:1035B0003C00204600F04CF8244A022084F83D00EC
:1035C00020688168114081602068211D03F056F851
:1035D000226840F20336AF6940F60C4C2B684FF27C
:1035E000F00EA86891680B439169B14341EA072145
:1035F0000843D5E9031720EA0C00D5E9076C20EA57
:103600000E00D2F820E03F0140EA062668686D69A6
:10361000314347EA0C37936023680F4301219F61D0
:103620002EF0AA0242EA051322681843106284F8B9
:10363000481084F83E1084F83F1084F8441084F851
:10364000451084F83D100020AEE70000F8BFFEFFF3
:1036500070B586B0054614216846FCF7F9FF2B6863
:103660000024624802256049012683423BD15E481E
:103670001430026842F001020260006800F00100AC
:103680000590086840F0100008600868694600F07E
:10369000100005904FF420600090CDE9015454488B
:1036A000CDE90346FEF7D4FD002205211820FEF7E0
:1036B00091FF1820FEF780FF002205211920FEF758
:1036C00089FF1920FEF778FF002205211A20FEF756
:1036D00081FF1A20FEF770FF002205211B20FEF754
:1036E00079FF1B2058E0434AB3F1804F424822D073
:1036F000424EB34254D1136843F002031360126880
:1037000002F0020205920A6842F001020A600968AA
:1037100001F001010591C0210091CDE90154CDE9ED
:1037200003456946FEF794FD002205211D20FEF7A2
:1037300051FF1D2030E0136843F00103136012684D
:1037400002F0010205920A6842F001020A600A686A
:1037500002F0010205920A6842F002020A6009685A
:1037600001F00201059120210091CDE90154CDE93C
:1037700003466946FEF76CFD08200090CDE9015430
:103780001F486946CDE90346FEF762FD0022052188
:103790001C20FEF71FFF1C20FEF70EFF06B070BDB9
:1037A000184EB342FAD1136843F00803136012684D
:1037B00002F0080205920A6842F001020A600968F4
:1037C00001F00101059103210091CDE90154CDE9FA
:1037D00003456946FEF73CFD002205213220FEF735
:1037E000F9FE3220D8E700003038024000000140E6
:1037F0000010024040380240000002400004004037
:1038000000040240000C004070B504464FF0020076
:1038100094F83E2094F83F5094F8446094F8453072
:1038200021B104290DD0012A1AD113E0012A17D1A0
:10383000012E15D184F83E0084F844000021206850
:1038400020E0012D0CD1012B0AD184F83F0084F82F
:10385000450014E0012D03D1012E01D1012B01D02F
:10386000012070BD84F83E0084F83F0084F84400D5
:1038700084F8450001222068002102F065FF2068DD
:103880000122042102F060FF2068016841F001017B
:103890000160002070BD30B5044600680D0024D0E2
:1038A000042D04D00022114602F04EFF20680022B1
:1038B000042102F049FF206841F21112016A11420D
:1038C00007D1016A9210114203D1016821F0010170
:1038D00001604FF001005DB1042D0ED084F83E0070
:1038E00084F83F0084F8440009E000221146E0E734
:1038F00084F83E0084F8440003E084F83F0084F834
:103900004500002030BD704770B5044600680025B2
:103910000169C943890715D4C168C943890711D40E
:10392000EA1E026101212177206880698007204614
:1039300002D0FFF7E8FF04E000F004F9204600F0B1
:10394000C6F9257720680169C943490717D4C168BA
:10395000C943490713D402216FF0040202612177A1
:103960002068806910F4407F204602D0FFF7CBFF2B
:1039700004E000F0E7F8204600F0A9F92577206878
:103980000169C943090716D4C168C943090712D49C
:1039900004216FF00802026121772068C069800766
:1039A000204602D0FFF7AFFF04E000F0CBF820463E
:1039B00000F08DF9257720680169C943C90617D43D
:1039C000C168C943C90613D408216FF0100202610F
:1039D00021772068C06910F4407F204602D0FFF7AD
:1039E00092FF04E000F0AEF8204600F070F9257771
:1039F00020680169C943C90708D1C168C943C9071B
:103A000004D1891E0161204600F0DEF920680169B9
:103A1000C943090609D4C168C943090605D46FF032
:103A2000800101612046FFF788FB20680169C943D6
:103A3000C90509D4C168C943090605D46FF480716A
:103A400001612046FFF778FB20680169C9434906F8
:103A500009D4C168C943490605D46FF0400101612A
:103A6000204600F027FA20680169C94389060BD473
:103A7000C168C943890607D46FF02001016120465F
:103A8000BDE87040FFF75ABB70BD000030B587B08D
:103A9000044614216846FCF7DBFD234A0020236816
:103AA000224993424FF0020211D10B6843F0080300
:103AB0000B60096801F0080105914FF47041009115
:103AC000CDE90120CDE903021948694613E0194DFB
:103AD0000324AB4213D10B6843F004030B60096865
:103AE00001F00401059121020091CDE90120CDE909
:103AF000030411486946FEF7ABFB07B030BD0F4D1C
:103B0000AB42FAD10B6843F010030B60096801F077
:103B10001001059160210091CDE90120CDE9030458
:103B200007486946E7E700000008004030380240D7
:103B3000000C024000040140000802400040014027
:103B400000100240704770B5044690F83C00002613
:103B50000D4601280BD0012084F83C000C2A4AD0E5
:103B600007DC82B1042A20D0082A06D131E00220E5
:103B700070BD102A53D0142A63D00126002084F887
:103B80003C00304670BD206802F0FCFD2068816971
:103B900041F0080181612068816921F0040181619F
:103BA00020682A698169114311E0206802F024FE2F
:103BB0002068816941F4006181612068816921F494
:103BC0008061816120682969826942EA01218161FD
:103BD000D4E7206802F04CFE2068C16941F008017A
:103BE000C1612068C16921F00401C16120682A69AE
:103BF000C169114311E0206802F076FE2068C169B6
:103C000041F40061C1612068C16921F48061C16132
:103C100020682969C26942EA0121C161AEE72068D2
:103C200002F08EFE2068416D41F008014165206878
:103C3000416D21F00401416520682A69416D1143FD
:103C400011E0206802F0A8FE2068416D41F4006197
:103C500041652068416D21F48061416520682969D2
:103C6000426D42EA0121416588E710B5040003D0A6
:103C700094F83D0010B107E0012010BD002084F849
:103C80003C00204600F022F8022084F83D00206825
:103C9000211D02F0F3FC012084F8480084F83E0066
:103CA00084F83F0084F8400084F8410084F8420022
:103CB00084F8430084F8440084F8450084F8460002
:103CC00084F8470084F83D00002010BD704770471D
:103CD00010B504464FF0020269B1042912D0082938
:103CE00017D00C291CD0102921D094F843000128AA
:103CF00024D0012010BD94F83E000128F9D184F8A9
:103D00003E201DE094F83F000128F2D184F83F20C6
:103D100016E094F840000128EBD184F840200FE031
:103D200094F841000128E4D184F8412008E094F897
:103D300042000128DDD184F8422001E084F84320CC
:103D40000122206802F000FD17492068174A8842C6
:103D500001D0904203D1436C43F400434364206894
:103D6000884213D0B0F1804F10D0114988420DD055
:103D7000104988420AD01049884207D0904205D0A5
:103D80000E49884202D00E49884207D181680D4A07
:103D90001140062906D0B1F5803F03D0016841F0FB
:103DA00001010160002010BD00000140000401403D
:103DB0000004004000080040000C004000400140AA
:103DC000001800400700010030B4304A01689142F9
:103DD00052D12F490C68616A47F6FF739FED2D0A97
:103DE00001EE101ADFED2C0A2D49F8EE411A9FED75
:103DF0002B1A01F110022B4DC1ED001A31EEC02A31
:103E000022EE202A22EE012A82ED002A63622C682B
:103E1000656A01EE905A244DF8EE611AC1ED011A5F
:103E200031EEC02A22EE202A22EE012A82ED012A5A
:103E300063622C68656A01EE905A1C4DF8EE611AB7
:103E4000C1ED021A31EEC02A22EE202A22EE012A0A
:103E500082ED022A63622C68656A01EE905AF8EEE0
:103E6000611AC1ED031A31EEC00A20EE200A20EEDD
:103E7000010A82ED030A636200680D49884202D19B
:103E800030BCFEF721BB30BC704700000048014049
:103E90003814002000FEFF46DB0F49400F506E3AF9
:103EA000200D0120D014002084140020681500206B
:103EB000002000407047704770B501680446C06F2D
:103EC0001025D4F880608968090618D5212816D1F4
:103ED0002068083050E8001F21F0800140E80012FF
:103EE000002AF5D1206F38B1FDF7D4FF20B1206F43
:103EF000FEF72BF8202821D0204603F0ACF82068EC
:103F00008068400618D5222E16D12068083050E867
:103F1000001F21F0400140E80012002AF5D1606F37
:103F200038B1FDF7B7FF20B1606FFEF70EF820281B
:103F300004D0204603F069F8002070BDC4F8845016
:103F4000032070BD70470146C06FD1F88010084350
:103F5000704700002DE9F04102680025044640F654
:103F60000F070226D06911689368384205D183068D
:103F70007ED58B067CD5A16E1CE1DFF868C203F00C
:103F8000010701EA0C0C57EA0C0C71D05FEAC07C07
:103F90000CD05FEAC15C09D54FF0010CC2F820C01B
:103FA000D4F8842042F00102C4F88420820709D5A5
:103FB000DA0707D022681662D4F8842042F004029F
:103FC000C4F8842042070AD5DA0708D023680422FF
:103FD0001A62D4F8842042F00202C4F88420020756
:103FE0000CD501F020023A4308D0236808221A6257
:103FF000D4F8842042F00802C4F8842002050BD5CE
:104000004A0109D523684FF400621A62D4F884206B
:1040100042F02002C4F88420D4F88420002A36D04C
:10402000800605D5880603D5A16E09B120468847CC
:104030002168D4F884008968490602D410F0280F5A
:1040400027D0204602F0E1FF2068806840061BD59B
:104050002068083050E8001F21F0400140E80012BD
:10406000002AF5D1606F78B15F490165606F00E0AB
:1040700015E0FDF758FF002809D0606F016D00E0E2
:104080002046BDE8F04108472046FFF75BFFBDE84A
:10409000F0812046FFF756FFC4F88450F7E7276EFB
:1040A0002023012F7DD1C7067FD5CF067DD51020D7
:1040B000106220688068400643D5616F08684068D8
:1040C0000004000CE3D0B4F858208242DFD9A4F8F1
:1040D0005A00C869B0F5807F2BD0216851E8000FE5
:1040E00020F4807041E80002002AF6D120680830F0
:1040F00050E8001F21F0010140E80012002AF5D12C
:104100002068083050E8001F21F0400140E800120C
:10411000002AF5D1C4F880302566216851E8000FE7
:1041200020F0100041E80002002AF6D1606FFDF790
:10413000B1FE6666B4F85800B4F85A10401A81B25D
:104140002DE0B4F85800B4F85A10B4F85A20401AC8
:1041500081B2002A9BD0002999D0226852E8000F32
:1041600020F4907042E80007002FF6D1206800F19B
:10417000080050E8002F22F0010240E80027002F3D
:10418000F4D1C4F880302566A566226852E8000F95
:1041900020F0100042E80003002BF6D166662046AE
:1041A00000E002E0FFF787FE71E7020606D50A0687
:1041B00004D5E16E00297FF463AF68E74006F3D5CC
:1041C0004806F1D52046026852E8001F21F0400160
:1041D00042E80014002CF6D1C367C56600F0FCFA73
:1041E00055E7000020010004096F000810B5040025
:1041F00002D0E06F10B107E0012010BD002084F86C
:104200007800204600F026F82420E0672068016846
:1042100021F001010160204602F0CEFF0128ECD020
:10422000606A10B1204602F0E9FD2068416821F47F
:10423000904141602068816821F02A0181602068F6
:10424000016841F0010101602046BDE8104002F024
:1042500039BE00002DE9F04FA7B00746142121A870
:10426000FCF7F6F984216846FCF7F2F9ED4C0226DA
:10427000ED4903253868103CDFF8A8934FF0080A91
:1042800088424FF000082DD14015CDF850800090A5
:104290006846FEF707FA08B1FDF778FCD9F8001078
:1042A00041F40021C9F80010D9F8000000F4002002
:1042B0002690206840F004002060206821A900F0CA
:1042C000040026904FF4406081E84101D748CDE9D1
:1042D000245AFDF7BDFF002205213420FEF77AF9AC
:1042E000342042E0D2494FF4805B884242D100152D
:1042F000CDF8548000906846FEF7D4F908B1FDF778
:1043000045FCD9F8001041F48011C9F80010D9F823
:10431000000000F480102690206840F00400206027
:10432000206800F004002690206840F0080020601B
:10433000206821A9544600F00800CDE925A0CDE968
:104340002385BA48CDE921B6FDF782FF21A90420D3
:1043500081E84101B748CDE92454FDF779FF0022F7
:1043600005213520FEF736F93520FEF725F927B06F
:10437000BDE8F08FB049884245D16846CDF800B01D
:10438000CDF85C80FEF78EF908B1FDF7FFFBD9F898
:10439000001041F08041C9F80010D9F8000000F089
:1043A00080402690206840F01000206020684FF484
:1043B000C071CDE9211600F01000444621A9CDE9D5
:1043C00025A09E48CDE92385FDF742FF9C4D4FF087
:1043D00020629C49081585E81600C5E903406C6118
:1043E0002846AC61EC612C626C62FDF781FE08B17D
:1043F000FDF7CCFB00227D6752201146AF63FEF72C
:10440000E9F85220B1E7904988422BD14014CDF809
:10441000608000906846FEF745F908B1FDF7B6FBED
:10442000D9F8001041F00041C9F80010D9F8000097
:1044300000F000402690206840F0100020602068C6
:1044400021A900F0100081E860012495CDE925A0A4
:104450007A48FDF7FDFE002205215320FEF7BAF849
:10446000532082E779494FF0070B88422DD1402035
:10447000CDF8448000906846FEF714F908B1FDF7C6
:1044800085FB6848001D016841F01001016000686B
:1044900000F010002690206840F0010020602068A5
:1044A00021AA4FF4C061249500F0010082E8420186
:1044B000CDE925B0664821A9FDF7CAFE00220521F5
:1044C0002520FEF787F825204FE7624988422DD145
:1044D0008020CDF8488000906846FEF7E3F808B1E8
:1044E000FDF754FBD9F8001041F40031C9F8001071
:1044F000D9F8000000F400302690206840F0010058
:104500002060206821AA0C21249500F0010082E897
:104510004201CDE925B04E4821A9FDF799FE0022C0
:1045200005212620FEF756F826201EE74A49884234
:1045300047D181156846CDF84C800091FEF7B2F85E
:1045400008B1FDF723FBD9F8001041F48021C9F828
:104550000010D9F8000000F480202690206840F078
:1045600002002060206823AA444600F00200269042
:104570004FF44060CDE9210682E83008374821A990
:10458000FDF766FE2E4D4FF000622E496035303942
:10459000081585E81600C5E903406C612846AC6142
:1045A000EC612C626C62FDF7A3FD08B1FDF7EEFA39
:1045B0007D6700220521AF632720FEF70BF8272037
:1045C000D3E6274988427FF4D2AEC014CDF8588094
:1045D00000906846FEF766F808B1FDF7D7FA114873
:1045E000001D016841F020010160006800F020001A
:1045F0002690206840F004002060206821AAC02195
:10460000249500F0040082E84201CDE925A0074886
:1046100021A9FDF71DFE002205214720FDF7DAFF45
:104620004720A2E640380240004C0040000802400B
:1046300000500040000C0240007800400010024092
:10464000241B002058600240007C00400010014004
:1046500000000240004400400048004000040240C6
:104660000014014030B4D0F88030202B02D002205A
:1046700030BC704791B18AB10023036603685B6860
:104680001B0208D5046854E8003F43F0806344E807
:104690000035002DF6D130BC02F0A6BE0120E7E7C0
:1046A00030B4D0F88030202B02D0022030BC7047CC
:1046B00091B18AB10023036603685B681B0208D5C9
:1046C000046854E8003F43F0806344E80035002D5F
:1046D000F6D130BC02F0D8BE0120E7E730B5006863
:1046E000114988420CD1114841880A0408D4024675
:1046F0004FF000034C04127806D50A2A01D04380FB
:1047000030BD41F400410DE00D2A09D0084DC1F340
:104710000D04491C89B2C7292A554180EFD830BD04
:1047200041F48041418030BD00100140B8000020BC
:104730003411012070472DE9F8430446C06F1F462D
:1047400016460D46202802D00220BDE8F8838DB120
:1047500086B10020C4F884002121E167FDF7AEFE98
:104760008046A068A4F85060A4F85260B0F5805F5D
:1047700002D003E00120E8E7206910B12E460025B1
:1047800010E000260EE08021204602F0D9FEB8B9E4
:10479000C6B116F8010B21688862B4F85200401EB9
:1047A000A4F85200B4F8520043464FF000020097BC
:1047B0000028E8D14FF04001204602F0C1FE38B198
:1047C0000320C2E735F8020B2168C0F30800E3E7D5
:1047D0002020E0670020B8E77047FEE770B5114D74
:1047E0004FF48054002221462846FDF762FE012046
:1047F00001F0D4F8002228466110FDF75AFE02208D
:1048000003F0B6F9012221462846FDF752FE0220A8
:1048100003F0AEF921462846BDE870400022FDF7BE
:1048200048BE000000000240114810B586B0016883
:1048300041F008010160006802220E4C4FF4C051A3
:1048400000F0080005900120CDE90202CDE900103A
:1048500069462046FDF7FCFC01222046D102FDF707
:1048600028FE012220461103FDF723FE06B010BDED
:10487000303802400000024070B5114D4FF48054B2
:10488000002221462846FDF714FE012001F086F89B
:1048900001222846D102FDF70CFE022003F068F940
:1048A000012221462846FDF704FE022003F060F9AC
:1048B00021462846BDE870400022FDF7FABD000001
:1048C000000002402DE9F04700248046204601F018
:1048D00065F8174F00254FF480564FF400693146B4
:1048E00000223846FDF7E5FD022003F041F90122E0
:1048F00031463846FDF7DDFD60064946040E384670
:10490000FDF7CAFD08B1641CE4B2012003F030F9E0
:104910006D1CEDB2082DE2D3B8F1000F04D0FFF703
:104920005DFF2046BDE8F087FFF7A6FFF9E700002E
:10493000000002402DE9F0410546012001F02EF86B
:10494000174F4FF48056002231463846FDF7B1FD2F
:1049500000244FF40068280601D5012200E000225F
:1049600041463846FDF7A5FD6806050E022003F016
:10497000FFF8012231463846FDF79BFD022003F087
:10498000F7F8002231463846FDF793FD022003F088
:10499000EFF8641CE4B2082CDDD3BDE8F081000020
:1049A0000000024070B5012000F0F8FF01220F4D19
:1049B000D40228462146FDF77CFD01222846160335
:1049C0003146FDF776FD042003F0D2F8002221469F
:1049D0002846FDF76EFD042003F0CAF8314628464C
:1049E000BDE870400022FDF764BD000000000240F9
:1049F00070B5012000F0D2FF0F4D4FF4805400221B
:104A000021462846FDF755FD66102846002231460E
:104A1000FDF74FFD042003F0ABF8012221462846A4
:104A2000FDF747FD012231462846FDF742FDBDE86E
:104A30007040042003F09CB8000002402DE9F041D2
:104A40000024204600F0AAFF0122144DD602284679
:104A50003146FDF72EFD012003F08AF80122284699
:104A600017033946FDF725FD012003F081F808E022
:104A7000641CE4B2FA2C04D9FFF7BAFF0120BDE8A8
:104A8000F08131462846FDF707FD0028F0D10022CD
:104A900039462846FDF70DFD0020F0E700000240F2
:104AA0002DE9F0479FED990A00264FF001093546A0
:104AB0003346F0EE400A344615E000BFD0F800C09F
:104AC00009FA04F81CEA080F0BD004F1010805F1FB
:104AD000010509FA08F71CEA070FEDB201D1761CAF
:104AE000F6B2641CE4B28C42E8D3894C467205727B
:104AF000884EA468DFF82082E70424D500221FE056
:104B00000468A1EB020908EB8207A9F1010CA24697
:104B1000D7ED001A24FA0CF404F0010701EE107A24
:104B20003B44E407B8EE411A5BB241EE210A05D0DE
:104B3000A9F102072AFA07F4E40703D0521CD2B203
:104B40008A42DDD3D1E0A7041ED5002219E08F1AD6
:104B5000046808EB870C24FA02F75CED011A07F0F1
:104B6000010C01EE10CA6344FF07B8EE411A5BB2B4
:104B700041EE210A03D0571CFC40E40703D0521C2D
:104B8000D2B28A42E3D3B0E0240370D5B0EE401A2B
:104B90004FF0000AF0EE411AD146544652463CE02E
:104BA000BAF1000F03D0BAF1010F14D025E0076865
:104BB000A1EB020C08EB8C0CD74007F0010702EECA
:104BC000107A5CED012A4F44B8EE422A07F0FF0943
:104BD00002EE221A11E00768A1EB020C08EB8C0C24
:104BE000D74007F0010702EE107A5CED012A3C4441
:104BF000B8EE422AE4B242EE221A076827FA02FC13
:104C00005FEACC7C07D002F1010C27FA0CF7FF0712
:104C100001D14FF0010A521CD2B28A42C0D3B5EE84
:104C2000C01AF1EE10FA06D002EE109AF8EE422AFF
:104C300081EE222A01E0B0EE402A54B101EE104A82
:104C4000F8EE412A81EEA21A062D05D386ED010A5F
:104C500028E0B0EE401AF7E7F0EEC12AF0EEC21AF3
:104C6000F4EEE12AF1EE10FA02DD012001E01CE091
:104C700000202CB10021084304D086ED012A11E068
:104C80000121F8E7F4EEE12AF1EE10FA01D2012059
:104C900000E000200CB1012100E00021084224D0F6
:104CA00086ED011A0020BDE8F0878C1AC146D2B209
:104CB00017E000BF0768A1EB020CACF1010C09EB97
:104CC000820827FA0CF707F0010701EE107AD8EDF9
:104CD000001A521CB8EE411A3B44D2B25BB241EE0C
:104CE000210A9442E6DC042BB0DA5DB100205BB10E
:104CF00000210843AAD100EE103AB8EEC01A80EEA7
:104D0000810AA3E70120F2E70121F2E70000000099
:104D100084120120B812012078AE00087FB5164831
:104D2000002414490125009401942A040294039458
:104D30000160C0E9012404618461104980F82040C9
:104D4000C0E90A14C561C46080F830404561FDF7D0
:104D500047F808B1FCF71AFF0F206946CDE90005B6
:104D600005480294FCF75CFF002801D0FCF70EFF19
:104D70007FBD000000200140F01300200100000F63
:104D80000D4808B5016841F4001101600068002277
:104D9000052100F4001000900C20FDF71BFC0C20F6
:104DA000FDF70AFC00220E201146FDF713FCBDE8BA
:104DB00008400E20FDF700BC30380240704700006C
:104DC0002DE9F04387B014216846FBF741FC4D48BC
:104DD000016841F010010160016801F010010591C6
:104DE000016841F004010160016801F004010591CE
:104DF000016841F080010160016801F080010591C6
:104E0000016841F001010160016801F001010591B3
:104E1000016841F002010160016801F002010591A1
:104E2000016841F00801016000680122DFF8D890B4
:104E3000560300F00800314605904846FDF739FB5F
:104E4000002248461321FDF734FBDFF8C0804FF401
:104E5000C057002239464046FDF72BFB0024694627
:104E600001250220CDE90204CDE900654846FDF7A1
:104E7000EFF903206946CDE90005CDE90254484623
:104E8000FDF7E6F910200090CDE901546946484647
:104E90000394FDF7DDF943F2F7106946CDE900040C
:104EA0001B480294FDF7D4F940F6FB706946CDE942
:104EB000000418480294FDF7CBF928026946CDE9B1
:104EC000000440460294FDF7C3F900976946CDE916
:104ED000015440460394FDF7BBF94CF21840694673
:104EE000CDE900040C480294FDF7B2F9F8006946D8
:104EF000CDE9000448460294FDF7AAF907B0BDE8E1
:104F0000F0830000303802400008024000000240F8
:104F100000040240000C0240001002400C4845F220
:104F20005F4370B50021094D3124C0E9021380228E
:104F300082610161C0E90054FEF7A4F9002803D0A2
:104F4000BDE87040FCF722BE70BD00000048014083
:104F50009816002030B58DB024216846FBF778FB09
:104F600017480024154D4FF6FF72099480230A94C8
:104F700001210B94056003254460C0E902420461ED
:104F8000C0E905430095CDE9014103940494CDE9BE
:104F90000541694607940894FEF7FCFA08B1FCF74E
:104FA000F5FD074809A909940A940B94FEF718F92E
:104FB000002801D0FCF7EAFD0DB030BD0000014033
:104FC0003814002070B58CB024216846FBF740FBF4
:104FD0001548002401214FF6FF72099480238E07A3
:104FE0000A940B940325C0E90064C0E902420461FD
:104FF00083610095CDE9014103940494CDE9054115
:10500000694607940894FEF7C5FA08B1FCF7BEFD9F
:10501000054809A909940B94FEF7E2F8002801D08D
:10502000FCF7B4FD0CB070BD8414002070B58CB0DA
:1050300024216846FBF70CFB164800244FF6FF724C
:10504000134E099401210A9480230B940325C0E98F
:105050000064C0E90242046183610095CDE9014129
:1050600003940494CDE90541694607940894FEF73A
:1050700091FA08B1FCF78AFD064809A909940B9436
:10508000FEF7AEF8002801D0FCF780FD0CB070BD33
:1050900000040040D014002010B58EB000241C2164
:1050A000009407A801940294039404940594069430
:1050B000FBF7CEFA2A4845F25F41284B8022C0E92F
:1050C0000034C0E9024104618261FEF7DBF808B1F7
:1050D000FCF75CFD4FF48050009021486946FEF7D4
:1050E000E9F908B1FCF752FD1D48FEF7BEFD08B115
:1050F000FCF74CFD1A4804A904940694FEF770F8D6
:1051000008B1FCF743FD6020CDE9070414480022F4
:1051100007A909940B94FEF716FD08B1FCF736FDBC
:105120000F48042207A9FEF70EFD08B1FCF72EFD7B
:105130000B48082207A9FEF706FD08B1FCF726FD7B
:1051400007480C2207A9FEF7FEFC08B1FCF71EFD7C
:105150000348FEF79BFC0EB010BD000000080040A5
:105160001C15002070B58CB024216846FBF770FA3E
:10517000164800244FF6FF72134E099401210A9439
:1051800080230B940325C0E90064C0E90242046156
:1051900083610095CDE9014103940494CDE9054173
:1051A000694607940894FEF7F5F908B1FCF7EEFCA0
:1051B000064809A909940B94FEF712F8002801D0BB
:1051C000FCF7E4FC0CB070BD000C0040681500203A
:1051D00010B59AB000241C21009412A801940294E6
:1051E0000394049405940694FBF732FA2C2107A843
:1051F000FBF72EFA2F4845F25F422D498023C0E984
:105200000014C0E902420461C0E90543FEF73AF820
:1052100008B1FCF7BBFC4FF480500090254869466C
:10522000FEF748F908B1FCF7B1FC2248FEF71DFD76
:1052300008B1FCF7ABFC1F4804A90494059406943C
:10524000FDF7CEFF08B1FCF7A1FC60201494CDE976
:1052500012041848082212A9159416941794189449
:10526000FEF771FC08B1FCF791FC12480C2212A960
:10527000FEF769FC08B1FCF789FC4FF40050079475
:105280000894099401030A94CDE90B40CDE90E413D
:10529000084807A90D9410941194FDF751FF08B127
:1052A000FCF774FC0348FEF7F1FB1AB010BD0000D8
:1052B000000401400016002010B58CB000246846A0
:1052C0001C210794089409940A94FBF7C1F91E481D
:1052D00045F25F411B4B8022C0E90034C0E9024126
:1052E00004618261FDF7CEFF08B1FCF74FFC4FF47B
:1052F00080500790144807A9FEF7DCF808B1FCF7C6
:1053000045FC1148FEF7B1FC08B1FCF73FFC6020FA
:105310006946CDE900040C48002202940494FEF78B
:1053200012FC08B1FCF732FC074804226946FEF77C
:105330000AFC08B1FCF72AFC0348FEF7A7FB0CB0F7
:1053400010BD0000004001404C1600200D48002117
:1053500010B50B4C0C224FF4E1330460C0E901316D
:10536000C160C0E904128161C16101624162FEF75E
:105370003DFF002803D0BDE81040FCF707BC10BD7E
:10538000005000406C1700200D48002110B50B4C58
:105390000C224FF4E1330460C0E90131C160C0E97F
:1053A00004128161C16101624162FEF71FFF0028A2
:1053B00003D0BDE81040FCF7E9BB10BD0078004009
:1053C000F41700200D48002110B50B4C0C224FF4AF
:1053D00016530460C0E90131C160C0E90412816163
:1053E000C16101624162FEF701FF002803D0BDE800
:1053F0001040FCF7CBBB10BD007C00407C180020A7
:105400000D48002110B50B4C0C224FF4E133046021
:10541000C0E90131C160C0E904128161C16101626A
:105420004162FEF7E3FE002803D0BDE81040FCF720
:10543000ADBB10BD004400408C1900200D48002178
:1054400010B50B4C0C224FF4E1330460C0E901317C
:10545000C160C0E904128161C16101624162FEF76D
:10546000C5FE002803D0BDE81040FCF78FBB10BD7F
:1054700000480040141A0020FEE7FEE72DE9F04F37
:10548000D6491C222DED068B8FB06846FBF78CF8B1
:10549000D3491C2207A8FBF787F8D148B2EE0E0AC1
:1054A00080ED000A03F034FB022003F07DFECD4CBA
:1054B0009FEDCD9A9FEDCD0ACD4DC84884ED020AEF
:1054C000CC4E80ED009AA86840F48050A86094ED1E
:1054D000098A02E0022004F069FD94ED090A30EE29
:1054E000480A10EE100AB042F4DB9FEDC30ADFED6C
:1054F000C39A9FEDC38ABE48002584ED020ADFF8F7
:1055000004934FF47A7BDFF800A30079BF4E122892
:10551000F0EE008A6FD1BE48BE4F90ED040A89EDCF
:10552000000A94ED090A02E0022004F03FFDB06891
:10553000B842F9DB032003F037FE9FEDB70AB74806
:105540004FF08047804680ED000A02E0022004F020
:105550002DFD02F013FED8ED000A30EE600AB0EE29
:10556000C00A10EE100AB842F0DC02F007FE88ED27
:10557000010A0420C4ED039A03F016FE94ED09AA73
:105580002BE0A74A0121504611709AF8001001291A
:1055900000D0002142783AB10022114206D002F038
:1055A000EDFD30EE680A13E00122F6E741780129AB
:1055B00000D00021007838B10020014206D002F06E
:1055C000DDFD30EE280A03E00120F6E702F0D6FD0B
:1055D000022088ED010A04F0E9FC94ED090A9149E2
:1055E00030EE4A0A10EE100A8842CADB8C48DFF817
:1055F0003882057010E017E08C480564C0F838B0B8
:10560000C563C0F834B0FD63C7F834B03D64C7F873
:1056100038B0022004F0CAFCB1684145ECD3022046
:1056200089ED008A03F0C0FD7148007911287CD112
:105630007748784F90ED040A89ED000A94ED090A45
:1056400002E0022004F0B2FCB068B842F9DB0320AB
:1056500003F0AAFD9FED760A70484FF08047804620
:1056600080ED000A02E0022004F0A0FC02F086FDBA
:10567000D8ED000A30EE600AB0EEC00A10EE100A53
:10568000B842F0DC02F07AFD88ED010A0420C4ED96
:10569000039A03F089FDD4ED099A2DE060490120B9
:1056A000087002F013F99AF800105046012900D052
:1056B000002142783AB10022114206D002F05EFD8C
:1056C00030EE680A13E00122F6E74178012900D0A4
:1056D0000021007838B10020014206D002F04EFDD2
:1056E00030EE280A03E00120F6E702F047FD022031
:1056F00088ED010A04F05AFC94ED090A4D4830EE99
:10570000690A10EE101A8142C8DB4548057002F0A4
:1057100035FDDFED490A88ED010A0420C4ED030AD6
:1057200003F042FDDFF814A103E035E0022004F0AD
:105730003DFCB0685045F9DA3C485946404E40F6C9
:10574000B832337A13B1707A48B123E085630164CB
:105750004563C1637D63FA63BD633A64F1E7032087
:1057600003F022FD4746B046364E87ED009A05E02D
:1057700098F8090070B9022004F018FC02F0FEFC51
:10578000D7ED000A30EEC00AB0EEC00A10EE100AE3
:10579000B042EDDC02F08CF802204E4689ED008A22
:1057A00003F002FD9FED280A0C481C2284ED020A3A
:1057B0006946FAF7F9FE0A481C2207A9FAF7F4FE2F
:1057C0000B48057686ED008A017841F004010170EE
:1057D0000FB0BDEC068BBDE8F08F00002410012057
:1057E0005C100120601100200000344200002F44B2
:1057F000841201200000A0410000C84300007A4349
:105800000000000058110020820000209C0D0120A3
:1058100078AE00089A9929410000BEC29411002078
:105820008100002000005C42666616C10000014055
:105830000000B44200004842000048439A99193FD2
:10584000B81201200000A04000001644054800687E
:10585000016841F010010160034908220148FEF788
:1058600001BF0000F4170020A000002010B586B092
:1058700014216846FAF7ECFE1948016841F004016A
:105880000160006800F004000590FEF7CDFF154CA4
:10589000002210212046FCF70CFE0221102000906F
:1058A00001222046CDE9012103916946FCF7D0FC95
:1058B0000121002000F035F8002000F015F800F07C
:1058C0007F0040F01001002000F02BF88421FE2022
:1058D00000F027F80121002000F023F806B010BDE9
:1058E000303802400008024010B50446FFF75AF86D
:1058F000E020FFF71FF8FFF7A1F82046FFF71AF89E
:10590000FFF79CF8FFF74EF8E120FFF713F8FFF7D9
:1059100095F80020FEF7D6FF0446FFF769F8204609
:1059200010BD70B50D460446FFF73CF8E020FFF7C8
:1059300001F8FFF783F82046FEF7FCFFFFF77EF83B
:105940002846FEF7F7FFFFF779F8FFF751F8BDE8B3
:1059500070400A2002F0FEB870B50C4605460620DD
:1059600000EB84000021C0B2FFF7DBFF072000EB53
:1059700084000021C0B2FFF7D4FF082000EB8400B0
:10598000E9B2C0B2FFF7CDFF092000EB8400290A7D
:10599000BDE87040C0B2FFF7C4BF000010B586B0CC
:1059A000044614216846FAF753FE0D4B012C4FF4C0
:1059B00000604FF002010CD0002C08D100220090B2
:1059C000CDE90121039169461846FCF741FC06B078
:1059D00010BD0122CDE90221CDE90002F3E700006C
:1059E00000000240F0B587B038491C226846FAF73B
:1059F000DBFD374C3748354994ED051A90ED090A1F
:105A000080ED021A237F354A354D1A2B354EDFEDD6
:105A1000320A02D0142B26D046E0334BC0ED020AE6
:105A2000D0ED090A70EEC00AF0EEE00A10EE907AAE
:105A30009F42F5DBDFED2D0A9FED2D0AC0ED020A36
:105A4000D2ED0B0AC5ED000A81ED000A02F096FBCB
:105A5000D4ED090A30EE600AB0EEC00A10EE100A6A
:105A6000B042F3DC20E0234FC0ED020AD0ED090A7A
:105A700070EEC00AF0EEE00A10EE903ABB42F5DBA1
:105A800092ED050ADFED1C0A85ED000AC1ED000A62
:105A900002F074FBD4ED090A30EE600AB0EEC00AE1
:105AA00010EE100AB042F3DC08481C226946FAF7EF
:105AB0007BFD9FED120A002085ED000A20762078FC
:105AC00040F00400207007B0F0BD00002410012059
:105AD00084120120601100200000DC4278AE000832
